{
  "_format": "hh-sol-artifact-1",
  "contractName": "CritPortal",
  "sourceName": "contracts/critportal.sol",
  "abi": [
    {
      "inputs": [],
      "stateMutability": "payable",
      "type": "constructor"
    },
    {
      "anonymous": false,
      "inputs": [
        {
          "indexed": false,
          "internalType": "string",
          "name": "id",
          "type": "string"
        },
        {
          "indexed": true,
          "internalType": "address",
          "name": "from",
          "type": "address"
        },
        {
          "indexed": false,
          "internalType": "uint256",
          "name": "reward",
          "type": "uint256"
        }
      ],
      "name": "NewQuestion",
      "type": "event"
    },
    {
      "anonymous": false,
      "inputs": [
        {
          "indexed": true,
          "internalType": "address",
          "name": "previousOwner",
          "type": "address"
        },
        {
          "indexed": true,
          "internalType": "address",
          "name": "newOwner",
          "type": "address"
        }
      ],
      "name": "OwnershipTransferred",
      "type": "event"
    },
    {
      "inputs": [
        {
          "internalType": "string",
          "name": "_questionId",
          "type": "string"
        },
        {
          "internalType": "address",
          "name": "answerer",
          "type": "address"
        }
      ],
      "name": "chooseAnswer",
      "outputs": [],
      "stateMutability": "nonpayable",
      "type": "function"
    },
    {
      "inputs": [
        {
          "internalType": "string",
          "name": "_id",
          "type": "string"
        }
      ],
      "name": "closeQuestion",
      "outputs": [],
      "stateMutability": "nonpayable",
      "type": "function"
    },
    {
      "inputs": [
        {
          "internalType": "string",
          "name": "_questionId",
          "type": "string"
        }
      ],
      "name": "getQuestionById",
      "outputs": [
        {
          "components": [
            {
              "internalType": "address",
              "name": "questioner",
              "type": "address"
            },
            {
              "internalType": "uint256",
              "name": "reward",
              "type": "uint256"
            },
            {
              "internalType": "bool",
              "name": "isRewarded",
              "type": "bool"
            }
          ],
          "internalType": "struct CritPortal.Question",
          "name": "",
          "type": "tuple"
        }
      ],
      "stateMutability": "view",
      "type": "function"
    },
    {
      "inputs": [
        {
          "internalType": "string",
          "name": "",
          "type": "string"
        }
      ],
      "name": "idToQuestion",
      "outputs": [
        {
          "internalType": "address",
          "name": "questioner",
          "type": "address"
        },
        {
          "internalType": "uint256",
          "name": "reward",
          "type": "uint256"
        },
        {
          "internalType": "bool",
          "name": "isRewarded",
          "type": "bool"
        }
      ],
      "stateMutability": "view",
      "type": "function"
    },
    {
      "inputs": [
        {
          "internalType": "string",
          "name": "_id",
          "type": "string"
        },
        {
          "internalType": "uint256",
          "name": "_reward",
          "type": "uint256"
        }
      ],
      "name": "openQuestion",
      "outputs": [],
      "stateMutability": "payable",
      "type": "function"
    },
    {
      "inputs": [],
      "name": "owner",
      "outputs": [
        {
          "internalType": "address",
          "name": "",
          "type": "address"
        }
      ],
      "stateMutability": "view",
      "type": "function"
    },
    {
      "inputs": [],
      "name": "renounceOwnership",
      "outputs": [],
      "stateMutability": "nonpayable",
      "type": "function"
    },
    {
      "inputs": [
        {
          "internalType": "address",
          "name": "newOwner",
          "type": "address"
        }
      ],
      "name": "transferOwnership",
      "outputs": [],
      "stateMutability": "nonpayable",
      "type": "function"
    },
    {
      "inputs": [],
      "name": "withdraw",
      "outputs": [],
      "stateMutability": "nonpayable",
      "type": "function"
    }
  ],
  "bytecode": "0x608060405262000024620000186200007560201b60201c565b6200007d60201b60201c565b6200006f6040518060400160405280600c81526020017f63726974206f6e202e2e202100000000000000000000000000000000000000008152506200014160201b62000c1d1760201c565b620002d5565b600033905090565b60008060009054906101000a900473ffffffffffffffffffffffffffffffffffffffff169050816000806101000a81548173ffffffffffffffffffffffffffffffffffffffff021916908373ffffffffffffffffffffffffffffffffffffffff1602179055508173ffffffffffffffffffffffffffffffffffffffff168173ffffffffffffffffffffffffffffffffffffffff167f8be0079c531659141344cd1fd0a4f28419497f9722a3daafe3b4186f6b6457e060405160405180910390a35050565b620001e1816040516024016200015891906200024e565b6040516020818303038152906040527f41304fac000000000000000000000000000000000000000000000000000000007bffffffffffffffffffffffffffffffffffffffffffffffffffffffff19166020820180517bffffffffffffffffffffffffffffffffffffffffffffffffffffffff8381831617835250505050620001e460201b60201c565b50565b60008151905060006a636f6e736f6c652e6c6f679050602083016000808483855afa5050505050565b60006200021a8262000272565b6200022681856200027d565b9350620002388185602086016200028e565b6200024381620002c4565b840191505092915050565b600060208201905081810360008301526200026a81846200020d565b905092915050565b600081519050919050565b600082825260208201905092915050565b60005b83811015620002ae57808201518184015260208101905062000291565b83811115620002be576000848401525b50505050565b6000601f19601f8301169050919050565b61190080620002e56000396000f3fe6080604052600436106100865760003560e01c80638da5cb5b116100595780638da5cb5b1461010b5780639515c12d14610136578063a59d8a5914610175578063ce6bbca1146101b2578063f2fde38b146101ce57610086565b80631dc342b21461008b5780633ccfd60b146100b45780633ec8ffbb146100cb578063715018a6146100f4575b600080fd5b34801561009757600080fd5b506100b260048036038101906100ad91906110ba565b6101f7565b005b3480156100c057600080fd5b506100c9610408565b005b3480156100d757600080fd5b506100f260048036038101906100ed9190611079565b610539565b005b34801561010057600080fd5b506101096107b8565b005b34801561011757600080fd5b50610120610840565b60405161012d91906114ec565b60405180910390f35b34801561014257600080fd5b5061015d60048036038101906101589190611079565b610869565b60405161016c93929190611507565b60405180910390f35b34801561018157600080fd5b5061019c60048036038101906101979190611079565b6108d6565b6040516101a991906116da565b60405180910390f35b6101cc60048036038101906101c7919061110e565b610989565b005b3480156101da57600080fd5b506101f560048036038101906101f09190611050565b610b25565b005b813373ffffffffffffffffffffffffffffffffffffffff1660018260405161021f91906114c0565b908152602001604051809103902060000160009054906101000a900473ffffffffffffffffffffffffffffffffffffffff1673ffffffffffffffffffffffffffffffffffffffff16146102a7576040517f08c379a000000000000000000000000000000000000000000000000000000000815260040161029e9061165a565b60405180910390fd5b60006001846040516102b991906114c0565b90815260200160405180910390209050600015158160020160009054906101000a900460ff161515146102eb57600080fd5b60008160010154905047811115610337576040517f08c379a000000000000000000000000000000000000000000000000000000000815260040161032e9061163a565b60405180910390fd5b60018260020160006101000a81548160ff02191690831515021790555060008473ffffffffffffffffffffffffffffffffffffffff168260405161037a906114d7565b60006040518083038185875af1925050503d80600081146103b7576040519150601f19603f3d011682016040523d82523d6000602084013e6103bc565b606091505b5050905080610400576040517f08c379a00000000000000000000000000000000000000000000000000000000081526004016103f79061169a565b60405180910390fd5b505050505050565b610410610cb6565b73ffffffffffffffffffffffffffffffffffffffff1661042e610840565b73ffffffffffffffffffffffffffffffffffffffff1614610484576040517f08c379a000000000000000000000000000000000000000000000000000000000815260040161047b9061167a565b60405180910390fd5b600047905060003373ffffffffffffffffffffffffffffffffffffffff16826040516104af906114d7565b60006040518083038185875af1925050503d80600081146104ec576040519150601f19603f3d011682016040523d82523d6000602084013e6104f1565b606091505b5050905080610535576040517f08c379a000000000000000000000000000000000000000000000000000000000815260040161052c9061169a565b60405180910390fd5b5050565b803373ffffffffffffffffffffffffffffffffffffffff1660018260405161056191906114c0565b908152602001604051809103902060000160009054906101000a900473ffffffffffffffffffffffffffffffffffffffff1673ffffffffffffffffffffffffffffffffffffffff16146105e9576040517f08c379a00000000000000000000000000000000000000000000000000000000081526004016105e09061165a565b60405180910390fd5b6105f247610cbe565b600060018360405161060491906114c0565b908152602001604051809103902090506106716040518060600160405280602f815260200161189c602f91398260000160009054906101000a900473ffffffffffffffffffffffffffffffffffffffff168360020160009054906101000a900460ff168460010154610d57565b600015158160020160009054906101000a900460ff1615151461069357600080fd5b600081600101549050478111156106df576040517f08c379a00000000000000000000000000000000000000000000000000000000081526004016106d69061163a565b60405180910390fd5b60018260020160006101000a81548160ff02191690831515021790555060003373ffffffffffffffffffffffffffffffffffffffff1682604051610722906114d7565b60006040518083038185875af1925050503d806000811461075f576040519150601f19603f3d011682016040523d82523d6000602084013e610764565b606091505b50509050806107a8576040517f08c379a000000000000000000000000000000000000000000000000000000000815260040161079f9061169a565b60405180910390fd5b6107b147610cbe565b5050505050565b6107c0610cb6565b73ffffffffffffffffffffffffffffffffffffffff166107de610840565b73ffffffffffffffffffffffffffffffffffffffff1614610834576040517f08c379a000000000000000000000000000000000000000000000000000000000815260040161082b9061167a565b60405180910390fd5b61083e6000610df9565b565b60008060009054906101000a900473ffffffffffffffffffffffffffffffffffffffff16905090565b6001818051602081018201805184825260208301602085012081835280955050505050506000915090508060000160009054906101000a900473ffffffffffffffffffffffffffffffffffffffff16908060010154908060020160009054906101000a900460ff16905083565b6108de610f85565b6001826040516108ee91906114c0565b90815260200160405180910390206040518060600160405290816000820160009054906101000a900473ffffffffffffffffffffffffffffffffffffffff1673ffffffffffffffffffffffffffffffffffffffff1673ffffffffffffffffffffffffffffffffffffffff168152602001600182015481526020016002820160009054906101000a900460ff1615151515815250509050919050565b8034146109cb576040517f08c379a00000000000000000000000000000000000000000000000000000000081526004016109c2906116ba565b60405180910390fd5b60405180606001604052803373ffffffffffffffffffffffffffffffffffffffff16815260200182815260200160001515815250600183604051610a0f91906114c0565b908152602001604051809103902060008201518160000160006101000a81548173ffffffffffffffffffffffffffffffffffffffff021916908373ffffffffffffffffffffffffffffffffffffffff1602179055506020820151816001015560408201518160020160006101000a81548160ff021916908315150217905550905050610ad16040518060400160405280602081526020017f257320686173206f70656e65642061207175657374696f6e20776974682025738152503383610ebd565b3373ffffffffffffffffffffffffffffffffffffffff167f8ccf4884ac50a8e4009a55e0251e5ab331e2db6582b91f8759cee94d9ebb22608383604051610b199291906115ea565b60405180910390a25050565b610b2d610cb6565b73ffffffffffffffffffffffffffffffffffffffff16610b4b610840565b73ffffffffffffffffffffffffffffffffffffffff1614610ba1576040517f08c379a0000000000000000000000000000000000000000000000000000000008152600401610b989061167a565b60405180910390fd5b600073ffffffffffffffffffffffffffffffffffffffff168173ffffffffffffffffffffffffffffffffffffffff161415610c11576040517f08c379a0000000000000000000000000000000000000000000000000000000008152600401610c089061161a565b60405180910390fd5b610c1a81610df9565b50565b610cb381604051602401610c31919061153e565b6040516020818303038152906040527f41304fac000000000000000000000000000000000000000000000000000000007bffffffffffffffffffffffffffffffffffffffffffffffffffffffff19166020820180517bffffffffffffffffffffffffffffffffffffffffffffffffffffffff8381831617835250505050610f5c565b50565b600033905090565b610d5481604051602401610cd291906116f5565b6040516020818303038152906040527ff5b1bba9000000000000000000000000000000000000000000000000000000007bffffffffffffffffffffffffffffffffffffffffffffffffffffffff19166020820180517bffffffffffffffffffffffffffffffffffffffffffffffffffffffff8381831617835250505050610f5c565b50565b610df384848484604051602401610d719493929190611560565b6040516020818303038152906040527fc5d1bb8b000000000000000000000000000000000000000000000000000000007bffffffffffffffffffffffffffffffffffffffffffffffffffffffff19166020820180517bffffffffffffffffffffffffffffffffffffffffffffffffffffffff8381831617835250505050610f5c565b50505050565b60008060009054906101000a900473ffffffffffffffffffffffffffffffffffffffff169050816000806101000a81548173ffffffffffffffffffffffffffffffffffffffff021916908373ffffffffffffffffffffffffffffffffffffffff1602179055508173ffffffffffffffffffffffffffffffffffffffff168173ffffffffffffffffffffffffffffffffffffffff167f8be0079c531659141344cd1fd0a4f28419497f9722a3daafe3b4186f6b6457e060405160405180910390a35050565b610f57838383604051602401610ed5939291906115ac565b6040516020818303038152906040527f07c81217000000000000000000000000000000000000000000000000000000007bffffffffffffffffffffffffffffffffffffffffffffffffffffffff19166020820180517bffffffffffffffffffffffffffffffffffffffffffffffffffffffff8381831617835250505050610f5c565b505050565b60008151905060006a636f6e736f6c652e6c6f679050602083016000808483855afa5050505050565b6040518060600160405280600073ffffffffffffffffffffffffffffffffffffffff168152602001600081526020016000151581525090565b6000610fd1610fcc84611741565b611710565b905082815260208101848484011115610fe957600080fd5b610ff48482856117eb565b509392505050565b60008135905061100b8161186d565b92915050565b600082601f83011261102257600080fd5b8135611032848260208601610fbe565b91505092915050565b60008135905061104a81611884565b92915050565b60006020828403121561106257600080fd5b600061107084828501610ffc565b91505092915050565b60006020828403121561108b57600080fd5b600082013567ffffffffffffffff8111156110a557600080fd5b6110b184828501611011565b91505092915050565b600080604083850312156110cd57600080fd5b600083013567ffffffffffffffff8111156110e757600080fd5b6110f385828601611011565b925050602061110485828601610ffc565b9150509250929050565b6000806040838503121561112157600080fd5b600083013567ffffffffffffffff81111561113b57600080fd5b61114785828601611011565b92505060206111588582860161103b565b9150509250929050565b61116b816117a3565b82525050565b61117a816117a3565b82525050565b611189816117b5565b82525050565b611198816117b5565b82525050565b60006111a982611771565b6111b38185611787565b93506111c38185602086016117fa565b6111cc8161185c565b840191505092915050565b60006111e282611771565b6111ec8185611798565b93506111fc8185602086016117fa565b80840191505092915050565b6000611215602683611787565b91507f4f776e61626c653a206e6577206f776e657220697320746865207a65726f206160008301527f64647265737300000000000000000000000000000000000000000000000000006020830152604082019050919050565b600061127b603483611787565b91507f547279696e6720746f207769746864726177206d6f7265206d6f6e657920746860008301527f616e2074686520636f6e7472616374206861732e0000000000000000000000006020830152604082019050919050565b60006112e1602e83611787565b91507f5468652075736572206973206e6f742061207175657374696f6e6572206f662060008301527f74686973207175657374696f6e210000000000000000000000000000000000006020830152604082019050919050565b6000611347602083611787565b91507f4f776e61626c653a2063616c6c6572206973206e6f7420746865206f776e65726000830152602082019050919050565b6000611387602683611787565b91507f4661696c656420746f207769746864726177206d6f6e65792066726f6d20636f60008301527f6e747261637400000000000000000000000000000000000000000000000000006020830152604082019050919050565b60006113ed60008361177c565b9150600082019050919050565b6000611407603a83611787565b91507f546865207573657220646964206e6f742061747461636820616363757261746560008301527f20616d6f756e74206f6620636f696e20746f20726577617264210000000000006020830152604082019050919050565b6060820160008201516114766000850182611162565b50602082015161148960208501826114a2565b50604082015161149c6040850182611180565b50505050565b6114ab816117e1565b82525050565b6114ba816117e1565b82525050565b60006114cc82846111d7565b915081905092915050565b60006114e2826113e0565b9150819050919050565b60006020820190506115016000830184611171565b92915050565b600060608201905061151c6000830186611171565b61152960208301856114b1565b611536604083018461118f565b949350505050565b60006020820190508181036000830152611558818461119e565b905092915050565b6000608082019050818103600083015261157a818761119e565b90506115896020830186611171565b611596604083018561118f565b6115a360608301846114b1565b95945050505050565b600060608201905081810360008301526115c6818661119e565b90506115d56020830185611171565b6115e260408301846114b1565b949350505050565b60006040820190508181036000830152611604818561119e565b905061161360208301846114b1565b9392505050565b6000602082019050818103600083015261163381611208565b9050919050565b600060208201905081810360008301526116538161126e565b9050919050565b60006020820190508181036000830152611673816112d4565b9050919050565b600060208201905081810360008301526116938161133a565b9050919050565b600060208201905081810360008301526116b38161137a565b9050919050565b600060208201905081810360008301526116d3816113fa565b9050919050565b60006060820190506116ef6000830184611460565b92915050565b600060208201905061170a60008301846114b1565b92915050565b6000604051905081810181811067ffffffffffffffff821117156117375761173661182d565b5b8060405250919050565b600067ffffffffffffffff82111561175c5761175b61182d565b5b601f19601f8301169050602081019050919050565b600081519050919050565b600081905092915050565b600082825260208201905092915050565b600081905092915050565b60006117ae826117c1565b9050919050565b60008115159050919050565b600073ffffffffffffffffffffffffffffffffffffffff82169050919050565b6000819050919050565b82818337600083830152505050565b60005b838110156118185780820151818401526020810190506117fd565b83811115611827576000848401525b50505050565b7f4e487b7100000000000000000000000000000000000000000000000000000000600052604160045260246000fd5b6000601f19601f8301169050919050565b611876816117a3565b811461188157600080fd5b50565b61188d816117e1565b811461189857600080fd5b5056fe466f756e642061207175657374696f6e212066726f6d2025732c207374617475732025732c20726577617264202573a26469706673582212200feb431da85dc1485dfdedbc5c453041895bfe7e8f334b5ed4af53e705fabfa964736f6c63430008000033",
  "linkReferences": {},
  "deployedLinkReferences": {}
}